{"abi":[{"type":"constructor","inputs":[],"payable":false,"stateMutability":"nonpayable"},{"name":"send","type":"function","inputs":[{"name":"receiver","type":"address","internalType":"address"},{"name":"amount","type":"uint256","internalType":"uint256"}],"outputs":[],"payable":false,"constant":false,"stateMutability":"nonpayable"},{"name":"getalance","type":"function","inputs":[],"outputs":[{"name":"","type":"uint256","internalType":"uint256"}],"payable":false,"constant":true,"stateMutability":"view"}],"devdoc":{"methods":{}},"source":"pragma solidity >=0.4.22 <0.9.0;\n \n//contact\n \ncontract BlockdemyCoin {\n//variables\nmapping(address => uint) balances;\n\n//constructor\nconstructor()  public {\n    //balance iniial\n    balances[msg.sender]=1000;\n}\n\n \n//metodos\n\nfunction send(address  receiver,uint amount) public{\n   require(balances[msg.sender] > amount);\n        balances[msg.sender] -= amount;\n        balances[msg.sender] += amount;\n \n\n}\n\nfunction getalance() public  view returns (uint) {\n    return balances[msg.sender];\n}\n\n}\n\n\n","userdoc":{"methods":{}},"bytecode":"0x608060405234801561001057600080fd5b506103e86000803373ffffffffffffffffffffffffffffffffffffffff1673ffffffffffffffffffffffffffffffffffffffff16815260200190815260200160002081905550610208806100656000396000f3fe608060405234801561001057600080fd5b50600436106100365760003560e01c8063084c639b1461003b578063d0679d3414610059575b600080fd5b6100436100a7565b6040518082815260200191505060405180910390f35b6100a56004803603604081101561006f57600080fd5b81019080803573ffffffffffffffffffffffffffffffffffffffff169060200190929190803590602001909291905050506100ed565b005b60008060003373ffffffffffffffffffffffffffffffffffffffff1673ffffffffffffffffffffffffffffffffffffffff16815260200190815260200160002054905090565b806000803373ffffffffffffffffffffffffffffffffffffffff1673ffffffffffffffffffffffffffffffffffffffff168152602001908152602001600020541161013757600080fd5b806000803373ffffffffffffffffffffffffffffffffffffffff1673ffffffffffffffffffffffffffffffffffffffff16815260200190815260200160002060008282540392505081905550806000803373ffffffffffffffffffffffffffffffffffffffff1673ffffffffffffffffffffffffffffffffffffffff16815260200190815260200160002060008282540192505081905550505056fea265627a7a72315820eba560e7030efa9a68718e0cb4b69248e312af08eb30704ce63180badcfda1d164736f6c63430005100032","compiler":{"name":"solc","version":"0.5.16+commit.9c3226ce.Emscripten.clang"},"updatedAt":"2021-05-19T20:10:00.770Z","sourcePath":"/home/builduser/teams_workingdir/repo/contracts/Blockdemycoin.sol","networkType":"ethereum","contractName":"BlockdemyCoin","schemaVersion":"3.4.1"}