{
  "contractName": "BlockdemyCoin",
  "abi": [
    {
      "inputs": [],
      "payable": false,
      "stateMutability": "nonpayable",
      "type": "constructor"
    },
    {
      "constant": false,
      "inputs": [
        {
          "internalType": "address",
          "name": "receiver",
          "type": "address"
        },
        {
          "internalType": "uint256",
          "name": "amount",
          "type": "uint256"
        }
      ],
      "name": "send",
      "outputs": [],
      "payable": false,
      "stateMutability": "nonpayable",
      "type": "function"
    },
    {
      "constant": true,
      "inputs": [],
      "name": "getalance",
      "outputs": [
        {
          "internalType": "uint256",
          "name": "",
          "type": "uint256"
        }
      ],
      "payable": false,
      "stateMutability": "view",
      "type": "function"
    }
  ],
  "bytecode": "0x608060405234801561001057600080fd5b506103e86000803373ffffffffffffffffffffffffffffffffffffffff1673ffffffffffffffffffffffffffffffffffffffff16815260200190815260200160002081905550610208806100656000396000f3fe608060405234801561001057600080fd5b50600436106100365760003560e01c8063084c639b1461003b578063d0679d3414610059575b600080fd5b6100436100a7565b6040518082815260200191505060405180910390f35b6100a56004803603604081101561006f57600080fd5b81019080803573ffffffffffffffffffffffffffffffffffffffff169060200190929190803590602001909291905050506100ed565b005b60008060003373ffffffffffffffffffffffffffffffffffffffff1673ffffffffffffffffffffffffffffffffffffffff16815260200190815260200160002054905090565b806000803373ffffffffffffffffffffffffffffffffffffffff1673ffffffffffffffffffffffffffffffffffffffff168152602001908152602001600020541161013757600080fd5b806000803373ffffffffffffffffffffffffffffffffffffffff1673ffffffffffffffffffffffffffffffffffffffff16815260200190815260200160002060008282540392505081905550806000803373ffffffffffffffffffffffffffffffffffffffff1673ffffffffffffffffffffffffffffffffffffffff16815260200190815260200160002060008282540192505081905550505056fea265627a7a72315820b2ef140feb1d9fafa0bf731c72e8ccc69d3a39cd263bce3beae2c29db583bfda64736f6c63430005100032",
  "source": "pragma solidity >=0.4.22 <0.9.0;\n \n//contact\n \ncontract BlockdemyCoin {\n//variables\nmapping(address => uint) balances;\n\n//constructor\nconstructor()  public {\n    //balance iniial\n    balances[msg.sender]=1000;\n}\n\n \n//metodos\n\nfunction send(address  receiver,uint amount) public{\n   require(balances[msg.sender] > amount);\n        balances[msg.sender] -= amount;\n        balances[msg.sender] += amount;\n \n\n}\n\nfunction getalance() public  view returns (uint) {\n    return balances[msg.sender];\n}\n\n}\n\n\n",
  "sourcePath": "/Users/usu1/Documents/coin2/contracts/Blockdemycoin.sol",
  "compiler": {
    "name": "solc",
    "version": "0.5.16+commit.9c3226ce.Emscripten.clang"
  },
  "schemaVersion": "3.4.1",
  "updatedAt": "2021-05-19T19:10:46.893Z",
  "devdoc": {
    "methods": {}
  },
  "userdoc": {
    "methods": {}
  }
}